{
  "contractName": "Color",
  "abi": [
    {
      "inputs": [],
      "stateMutability": "nonpayable",
      "type": "constructor"
    },
    {
      "anonymous": false,
      "inputs": [
        {
          "indexed": true,
          "internalType": "address",
          "name": "owner",
          "type": "address"
        },
        {
          "indexed": true,
          "internalType": "address",
          "name": "approved",
          "type": "address"
        },
        {
          "indexed": true,
          "internalType": "uint256",
          "name": "tokenId",
          "type": "uint256"
        }
      ],
      "name": "Approval",
      "type": "event"
    },
    {
      "anonymous": false,
      "inputs": [
        {
          "indexed": true,
          "internalType": "address",
          "name": "owner",
          "type": "address"
        },
        {
          "indexed": true,
          "internalType": "address",
          "name": "operator",
          "type": "address"
        },
        {
          "indexed": false,
          "internalType": "bool",
          "name": "approved",
          "type": "bool"
        }
      ],
      "name": "ApprovalForAll",
      "type": "event"
    },
    {
      "anonymous": false,
      "inputs": [
        {
          "indexed": true,
          "internalType": "address",
          "name": "from",
          "type": "address"
        },
        {
          "indexed": true,
          "internalType": "address",
          "name": "to",
          "type": "address"
        },
        {
          "indexed": true,
          "internalType": "uint256",
          "name": "tokenId",
          "type": "uint256"
        }
      ],
      "name": "Transfer",
      "type": "event"
    },
    {
      "inputs": [
        {
          "internalType": "address",
          "name": "to",
          "type": "address"
        },
        {
          "internalType": "uint256",
          "name": "tokenId",
          "type": "uint256"
        }
      ],
      "name": "approve",
      "outputs": [],
      "stateMutability": "nonpayable",
      "type": "function"
    },
    {
      "inputs": [
        {
          "internalType": "address",
          "name": "owner",
          "type": "address"
        }
      ],
      "name": "balanceOf",
      "outputs": [
        {
          "internalType": "uint256",
          "name": "",
          "type": "uint256"
        }
      ],
      "stateMutability": "view",
      "type": "function",
      "constant": true
    },
    {
      "inputs": [
        {
          "internalType": "uint256",
          "name": "",
          "type": "uint256"
        }
      ],
      "name": "colors",
      "outputs": [
        {
          "internalType": "string",
          "name": "",
          "type": "string"
        }
      ],
      "stateMutability": "view",
      "type": "function",
      "constant": true
    },
    {
      "inputs": [
        {
          "internalType": "uint256",
          "name": "tokenId",
          "type": "uint256"
        }
      ],
      "name": "getApproved",
      "outputs": [
        {
          "internalType": "address",
          "name": "",
          "type": "address"
        }
      ],
      "stateMutability": "view",
      "type": "function",
      "constant": true
    },
    {
      "inputs": [
        {
          "internalType": "address",
          "name": "owner",
          "type": "address"
        },
        {
          "internalType": "address",
          "name": "operator",
          "type": "address"
        }
      ],
      "name": "isApprovedForAll",
      "outputs": [
        {
          "internalType": "bool",
          "name": "",
          "type": "bool"
        }
      ],
      "stateMutability": "view",
      "type": "function",
      "constant": true
    },
    {
      "inputs": [],
      "name": "name",
      "outputs": [
        {
          "internalType": "string",
          "name": "",
          "type": "string"
        }
      ],
      "stateMutability": "view",
      "type": "function",
      "constant": true
    },
    {
      "inputs": [
        {
          "internalType": "uint256",
          "name": "tokenId",
          "type": "uint256"
        }
      ],
      "name": "ownerOf",
      "outputs": [
        {
          "internalType": "address",
          "name": "",
          "type": "address"
        }
      ],
      "stateMutability": "view",
      "type": "function",
      "constant": true
    },
    {
      "inputs": [
        {
          "internalType": "address",
          "name": "from",
          "type": "address"
        },
        {
          "internalType": "address",
          "name": "to",
          "type": "address"
        },
        {
          "internalType": "uint256",
          "name": "tokenId",
          "type": "uint256"
        }
      ],
      "name": "safeTransferFrom",
      "outputs": [],
      "stateMutability": "nonpayable",
      "type": "function"
    },
    {
      "inputs": [
        {
          "internalType": "address",
          "name": "from",
          "type": "address"
        },
        {
          "internalType": "address",
          "name": "to",
          "type": "address"
        },
        {
          "internalType": "uint256",
          "name": "tokenId",
          "type": "uint256"
        },
        {
          "internalType": "bytes",
          "name": "_data",
          "type": "bytes"
        }
      ],
      "name": "safeTransferFrom",
      "outputs": [],
      "stateMutability": "nonpayable",
      "type": "function"
    },
    {
      "inputs": [
        {
          "internalType": "address",
          "name": "operator",
          "type": "address"
        },
        {
          "internalType": "bool",
          "name": "approved",
          "type": "bool"
        }
      ],
      "name": "setApprovalForAll",
      "outputs": [],
      "stateMutability": "nonpayable",
      "type": "function"
    },
    {
      "inputs": [
        {
          "internalType": "bytes4",
          "name": "interfaceId",
          "type": "bytes4"
        }
      ],
      "name": "supportsInterface",
      "outputs": [
        {
          "internalType": "bool",
          "name": "",
          "type": "bool"
        }
      ],
      "stateMutability": "view",
      "type": "function",
      "constant": true
    },
    {
      "inputs": [],
      "name": "symbol",
      "outputs": [
        {
          "internalType": "string",
          "name": "",
          "type": "string"
        }
      ],
      "stateMutability": "view",
      "type": "function",
      "constant": true
    },
    {
      "inputs": [
        {
          "internalType": "uint256",
          "name": "tokenId",
          "type": "uint256"
        }
      ],
      "name": "tokenURI",
      "outputs": [
        {
          "internalType": "string",
          "name": "",
          "type": "string"
        }
      ],
      "stateMutability": "view",
      "type": "function",
      "constant": true
    },
    {
      "inputs": [
        {
          "internalType": "address",
          "name": "from",
          "type": "address"
        },
        {
          "internalType": "address",
          "name": "to",
          "type": "address"
        },
        {
          "internalType": "uint256",
          "name": "tokenId",
          "type": "uint256"
        }
      ],
      "name": "transferFrom",
      "outputs": [],
      "stateMutability": "nonpayable",
      "type": "function"
    },
    {
      "inputs": [
        {
          "internalType": "string",
          "name": "_color",
          "type": "string"
        }
      ],
      "name": "mint",
      "outputs": [],
      "stateMutability": "nonpayable",
      "type": "function"
    },
    {
      "inputs": [],
      "name": "totalSupply",
      "outputs": [
        {
          "internalType": "uint256",
          "name": "",
          "type": "uint256"
        }
      ],
      "stateMutability": "view",
      "type": "function",
      "constant": true
    }
  ],
  "bytecode": "0x60806040523480156200001157600080fd5b506040518060400160405280600581526020017f436f6c6f720000000000000000000000000000000000000000000000000000008152506040518060400160405280600381526020017f434c520000000000000000000000000000000000000000000000000000000000815250816000908051906020019062000096929190620000b8565b508060019080519060200190620000af929190620000b8565b505050620001cd565b828054620000c69062000168565b90600052602060002090601f016020900481019282620000ea576000855562000136565b82601f106200010557805160ff191683800117855562000136565b8280016001018555821562000136579182015b828111156200013557825182559160200191906001019062000118565b5b50905062000145919062000149565b5090565b5b80821115620001645760008160009055506001016200014a565b5090565b600060028204905060018216806200018157607f821691505b602082108114156200019857620001976200019e565b5b50919050565b7f4e487b7100000000000000000000000000000000000000000000000000000000600052602260045260246000fd5b612c0f80620001dd6000396000f3fe608060405234801561001057600080fd5b50600436106101005760003560e01c806370a0823111610097578063bd11f69d11610066578063bd11f69d146102ab578063c87b56dd146102db578063d85d3d271461030b578063e985e9c51461032757610100565b806370a082311461022557806395d89b4114610255578063a22cb46514610273578063b88d4fde1461028f57610100565b806318160ddd116100d357806318160ddd1461019f57806323b872dd146101bd57806342842e0e146101d95780636352211e146101f557610100565b806301ffc9a71461010557806306fdde0314610135578063081812fc14610153578063095ea7b314610183575b600080fd5b61011f600480360381019061011a9190611c9f565b610357565b60405161012c91906120ee565b60405180910390f35b61013d610439565b60405161014a9190612109565b60405180910390f35b61016d60048036038101906101689190611d42565b6104cb565b60405161017a9190612087565b60405180910390f35b61019d60048036038101906101989190611c5f565b610550565b005b6101a7610668565b6040516101b4919061230b565b60405180910390f35b6101d760048036038101906101d29190611b49565b610675565b005b6101f360048036038101906101ee9190611b49565b6106d5565b005b61020f600480360381019061020a9190611d42565b6106f5565b60405161021c9190612087565b60405180910390f35b61023f600480360381019061023a9190611adc565b6107a7565b60405161024c919061230b565b60405180910390f35b61025d61085f565b60405161026a9190612109565b60405180910390f35b61028d60048036038101906102889190611c1f565b6108f1565b005b6102a960048036038101906102a49190611b9c565b610a72565b005b6102c560048036038101906102c09190611d42565b610ad4565b6040516102d29190612109565b60405180910390f35b6102f560048036038101906102f09190611d42565b610b80565b6040516103029190612109565b60405180910390f35b61032560048036038101906103209190611cf9565b610cd2565b005b610341600480360381019061033c9190611b09565b610d93565b60405161034e91906120ee565b60405180910390f35b60007f80ac58cd000000000000000000000000000000000000000000000000000000007bffffffffffffffffffffffffffffffffffffffffffffffffffffffff1916827bffffffffffffffffffffffffffffffffffffffffffffffffffffffff1916148061042257507f5b5e139f000000000000000000000000000000000000000000000000000000007bffffffffffffffffffffffffffffffffffffffffffffffffffffffff1916827bffffffffffffffffffffffffffffffffffffffffffffffffffffffff1916145b80610432575061043182610e27565b5b9050919050565b60606000805461044890612561565b80601f016020809104026020016040519081016040528092919081815260200182805461047490612561565b80156104c15780601f10610496576101008083540402835291602001916104c1565b820191906000526020600020905b8154815290600101906020018083116104a457829003601f168201915b5050505050905090565b60006104d682610e91565b610515576040517f08c379a000000000000000000000000000000000000000000000000000000000815260040161050c9061226b565b60405180910390fd5b6004600083815260200190815260200160002060009054906101000a900473ffffffffffffffffffffffffffffffffffffffff169050919050565b600061055b826106f5565b90508073ffffffffffffffffffffffffffffffffffffffff168373ffffffffffffffffffffffffffffffffffffffff1614156105cc576040517f08c379a00000000000000000000000000000000000000000000000000000000081526004016105c3906122cb565b60405180910390fd5b8073ffffffffffffffffffffffffffffffffffffffff166105eb610efd565b73ffffffffffffffffffffffffffffffffffffffff16148061061a575061061981610614610efd565b610d93565b5b610659576040517f08c379a0000000000000000000000000000000000000000000000000000000008152600401610650906121cb565b60405180910390fd5b6106638383610f05565b505050565b6000600780549050905090565b610686610680610efd565b82610fbe565b6106c5576040517f08c379a00000000000000000000000000000000000000000000000000000000081526004016106bc906122eb565b60405180910390fd5b6106d083838361109c565b505050565b6106f083838360405180602001604052806000815250610a72565b505050565b6000806002600084815260200190815260200160002060009054906101000a900473ffffffffffffffffffffffffffffffffffffffff169050600073ffffffffffffffffffffffffffffffffffffffff168173ffffffffffffffffffffffffffffffffffffffff16141561079e576040517f08c379a00000000000000000000000000000000000000000000000000000000081526004016107959061220b565b60405180910390fd5b80915050919050565b60008073ffffffffffffffffffffffffffffffffffffffff168273ffffffffffffffffffffffffffffffffffffffff161415610818576040517f08c379a000000000000000000000000000000000000000000000000000000000815260040161080f906121eb565b60405180910390fd5b600360008373ffffffffffffffffffffffffffffffffffffffff1673ffffffffffffffffffffffffffffffffffffffff168152602001908152602001600020549050919050565b60606001805461086e90612561565b80601f016020809104026020016040519081016040528092919081815260200182805461089a90612561565b80156108e75780601f106108bc576101008083540402835291602001916108e7565b820191906000526020600020905b8154815290600101906020018083116108ca57829003601f168201915b5050505050905090565b6108f9610efd565b73ffffffffffffffffffffffffffffffffffffffff168273ffffffffffffffffffffffffffffffffffffffff161415610967576040517f08c379a000000000000000000000000000000000000000000000000000000000815260040161095e9061218b565b60405180910390fd5b8060056000610974610efd565b73ffffffffffffffffffffffffffffffffffffffff1673ffffffffffffffffffffffffffffffffffffffff16815260200190815260200160002060008473ffffffffffffffffffffffffffffffffffffffff1673ffffffffffffffffffffffffffffffffffffffff16815260200190815260200160002060006101000a81548160ff0219169083151502179055508173ffffffffffffffffffffffffffffffffffffffff16610a21610efd565b73ffffffffffffffffffffffffffffffffffffffff167f17307eab39ab6107e8899845ad3d59bd9653f200f220920489ca2b5937696c3183604051610a6691906120ee565b60405180910390a35050565b610a83610a7d610efd565b83610fbe565b610ac2576040517f08c379a0000000000000000000000000000000000000000000000000000000008152600401610ab9906122eb565b60405180910390fd5b610ace848484846112f8565b50505050565b60078181548110610ae457600080fd5b906000526020600020016000915090508054610aff90612561565b80601f0160208091040260200160405190810160405280929190818152602001828054610b2b90612561565b8015610b785780601f10610b4d57610100808354040283529160200191610b78565b820191906000526020600020905b815481529060010190602001808311610b5b57829003601f168201915b505050505081565b6060610b8b82610e91565b610bca576040517f08c379a0000000000000000000000000000000000000000000000000000000008152600401610bc19061224b565b60405180910390fd5b6000600660008481526020019081526020016000208054610bea90612561565b80601f0160208091040260200160405190810160405280929190818152602001828054610c1690612561565b8015610c635780601f10610c3857610100808354040283529160200191610c63565b820191906000526020600020905b815481529060010190602001808311610c4657829003601f168201915b505050505090506000610c74611354565b9050600081511415610c8a578192505050610ccd565b600082511115610cbf578082604051602001610ca7929190612063565b60405160208183030381529060405292505050610ccd565b610cc88461136b565b925050505b919050565b600881604051610ce2919061204c565b908152602001604051809103902060009054906101000a900460ff1615610d0857600080fd5b600781908060018154018082558091505060019003906000526020600020016000909190919091509080519060200190610d439291906118f0565b5060006007805490509050610d583382611412565b6001600883604051610d6a919061204c565b908152602001604051809103902060006101000a81548160ff0219169083151502179055505050565b6000600560008473ffffffffffffffffffffffffffffffffffffffff1673ffffffffffffffffffffffffffffffffffffffff16815260200190815260200160002060008373ffffffffffffffffffffffffffffffffffffffff1673ffffffffffffffffffffffffffffffffffffffff16815260200190815260200160002060009054906101000a900460ff16905092915050565b60007f01ffc9a7000000000000000000000000000000000000000000000000000000007bffffffffffffffffffffffffffffffffffffffffffffffffffffffff1916827bffffffffffffffffffffffffffffffffffffffffffffffffffffffff1916149050919050565b60008073ffffffffffffffffffffffffffffffffffffffff166002600084815260200190815260200160002060009054906101000a900473ffffffffffffffffffffffffffffffffffffffff1673ffffffffffffffffffffffffffffffffffffffff1614159050919050565b600033905090565b816004600083815260200190815260200160002060006101000a81548173ffffffffffffffffffffffffffffffffffffffff021916908373ffffffffffffffffffffffffffffffffffffffff160217905550808273ffffffffffffffffffffffffffffffffffffffff16610f78836106f5565b73ffffffffffffffffffffffffffffffffffffffff167f8c5be1e5ebec7d5bd14f71427d1e84f3dd0314c0f7b2291e5b200ac8c7c3b92560405160405180910390a45050565b6000610fc982610e91565b611008576040517f08c379a0000000000000000000000000000000000000000000000000000000008152600401610fff906121ab565b60405180910390fd5b6000611013836106f5565b90508073ffffffffffffffffffffffffffffffffffffffff168473ffffffffffffffffffffffffffffffffffffffff16148061108257508373ffffffffffffffffffffffffffffffffffffffff1661106a846104cb565b73ffffffffffffffffffffffffffffffffffffffff16145b8061109357506110928185610d93565b5b91505092915050565b8273ffffffffffffffffffffffffffffffffffffffff166110bc826106f5565b73ffffffffffffffffffffffffffffffffffffffff1614611112576040517f08c379a00000000000000000000000000000000000000000000000000000000081526004016111099061228b565b60405180910390fd5b600073ffffffffffffffffffffffffffffffffffffffff168273ffffffffffffffffffffffffffffffffffffffff161415611182576040517f08c379a00000000000000000000000000000000000000000000000000000000081526004016111799061216b565b60405180910390fd5b61118d8383836115e0565b611198600082610f05565b6001600360008573ffffffffffffffffffffffffffffffffffffffff1673ffffffffffffffffffffffffffffffffffffffff16815260200190815260200160002060008282546111e89190612477565b925050819055506001600360008473ffffffffffffffffffffffffffffffffffffffff1673ffffffffffffffffffffffffffffffffffffffff168152602001908152602001600020600082825461123f91906123f0565b92505081905550816002600083815260200190815260200160002060006101000a81548173ffffffffffffffffffffffffffffffffffffffff021916908373ffffffffffffffffffffffffffffffffffffffff160217905550808273ffffffffffffffffffffffffffffffffffffffff168473ffffffffffffffffffffffffffffffffffffffff167fddf252ad1be2c89b69c2b068fc378daa952ba7f163c4a11628f55a4df523b3ef60405160405180910390a4505050565b61130384848461109c565b61130f848484846115e5565b61134e576040517f08c379a00000000000000000000000000000000000000000000000000000000081526004016113459061212b565b60405180910390fd5b50505050565b606060405180602001604052806000815250905090565b606061137682610e91565b6113b5576040517f08c379a00000000000000000000000000000000000000000000000000000000081526004016113ac906122ab565b60405180910390fd5b60006113bf611354565b905060008151116113df576040518060200160405280600081525061140a565b806113e98461177c565b6040516020016113fa929190612063565b6040516020818303038152906040525b915050919050565b600073ffffffffffffffffffffffffffffffffffffffff168273ffffffffffffffffffffffffffffffffffffffff161415611482576040517f08c379a00000000000000000000000000000000000000000000000000000000081526004016114799061222b565b60405180910390fd5b61148b81610e91565b156114cb576040517f08c379a00000000000000000000000000000000000000000000000000000000081526004016114c29061214b565b60405180910390fd5b6114d7600083836115e0565b6001600360008473ffffffffffffffffffffffffffffffffffffffff1673ffffffffffffffffffffffffffffffffffffffff168152602001908152602001600020600082825461152791906123f0565b92505081905550816002600083815260200190815260200160002060006101000a81548173ffffffffffffffffffffffffffffffffffffffff021916908373ffffffffffffffffffffffffffffffffffffffff160217905550808273ffffffffffffffffffffffffffffffffffffffff16600073ffffffffffffffffffffffffffffffffffffffff167fddf252ad1be2c89b69c2b068fc378daa952ba7f163c4a11628f55a4df523b3ef60405160405180910390a45050565b505050565b60006116068473ffffffffffffffffffffffffffffffffffffffff166118dd565b1561176f578373ffffffffffffffffffffffffffffffffffffffff1663150b7a0261162f610efd565b8786866040518563ffffffff1660e01b815260040161165194939291906120a2565b602060405180830381600087803b15801561166b57600080fd5b505af192505050801561169c57506040513d601f19601f820116820180604052508101906116999190611ccc565b60015b61171f573d80600081146116cc576040519150601f19603f3d011682016040523d82523d6000602084013e6116d1565b606091505b50600081511415611717576040517f08c379a000000000000000000000000000000000000000000000000000000000815260040161170e9061212b565b60405180910390fd5b805181602001fd5b63150b7a0260e01b7bffffffffffffffffffffffffffffffffffffffffffffffffffffffff1916817bffffffffffffffffffffffffffffffffffffffffffffffffffffffff191614915050611774565b600190505b949350505050565b606060008214156117c4576040518060400160405280600181526020017f300000000000000000000000000000000000000000000000000000000000000081525090506118d8565b600082905060005b600082146117f65780806117df906125c4565b915050600a826117ef9190612446565b91506117cc565b60008167ffffffffffffffff811115611812576118116126fa565b5b6040519080825280601f01601f1916602001820160405280156118445781602001600182028036833780820191505090505b5090505b600085146118d15760018261185d9190612477565b9150600a8561186c919061260d565b603061187891906123f0565b60f81b81838151811061188e5761188d6126cb565b5b60200101907effffffffffffffffffffffffffffffffffffffffffffffffffffffffffffff1916908160001a905350600a856118ca9190612446565b9450611848565b8093505050505b919050565b600080823b905060008111915050919050565b8280546118fc90612561565b90600052602060002090601f01602090048101928261191e5760008555611965565b82601f1061193757805160ff1916838001178555611965565b82800160010185558215611965579182015b82811115611964578251825591602001919060010190611949565b5b5090506119729190611976565b5090565b5b8082111561198f576000816000905550600101611977565b5090565b60006119a66119a18461234b565b612326565b9050828152602081018484840111156119c2576119c161272e565b5b6119cd84828561251f565b509392505050565b60006119e86119e38461237c565b612326565b905082815260208101848484011115611a0457611a0361272e565b5b611a0f84828561251f565b509392505050565b600081359050611a2681612b7d565b92915050565b600081359050611a3b81612b94565b92915050565b600081359050611a5081612bab565b92915050565b600081519050611a6581612bab565b92915050565b600082601f830112611a8057611a7f612729565b5b8135611a90848260208601611993565b91505092915050565b600082601f830112611aae57611aad612729565b5b8135611abe8482602086016119d5565b91505092915050565b600081359050611ad681612bc2565b92915050565b600060208284031215611af257611af1612738565b5b6000611b0084828501611a17565b91505092915050565b60008060408385031215611b2057611b1f612738565b5b6000611b2e85828601611a17565b9250506020611b3f85828601611a17565b9150509250929050565b600080600060608486031215611b6257611b61612738565b5b6000611b7086828701611a17565b9350506020611b8186828701611a17565b9250506040611b9286828701611ac7565b9150509250925092565b60008060008060808587031215611bb657611bb5612738565b5b6000611bc487828801611a17565b9450506020611bd587828801611a17565b9350506040611be687828801611ac7565b925050606085013567ffffffffffffffff811115611c0757611c06612733565b5b611c1387828801611a6b565b91505092959194509250565b60008060408385031215611c3657611c35612738565b5b6000611c4485828601611a17565b9250506020611c5585828601611a2c565b9150509250929050565b60008060408385031215611c7657611c75612738565b5b6000611c8485828601611a17565b9250506020611c9585828601611ac7565b9150509250929050565b600060208284031215611cb557611cb4612738565b5b6000611cc384828501611a41565b91505092915050565b600060208284031215611ce257611ce1612738565b5b6000611cf084828501611a56565b91505092915050565b600060208284031215611d0f57611d0e612738565b5b600082013567ffffffffffffffff811115611d2d57611d2c612733565b5b611d3984828501611a99565b91505092915050565b600060208284031215611d5857611d57612738565b5b6000611d6684828501611ac7565b91505092915050565b611d78816124ab565b82525050565b611d87816124bd565b82525050565b6000611d98826123ad565b611da281856123c3565b9350611db281856020860161252e565b611dbb8161273d565b840191505092915050565b6000611dd1826123b8565b611ddb81856123d4565b9350611deb81856020860161252e565b611df48161273d565b840191505092915050565b6000611e0a826123b8565b611e1481856123e5565b9350611e2481856020860161252e565b80840191505092915050565b6000611e3d6032836123d4565b9150611e488261274e565b604082019050919050565b6000611e60601c836123d4565b9150611e6b8261279d565b602082019050919050565b6000611e836024836123d4565b9150611e8e826127c6565b604082019050919050565b6000611ea66019836123d4565b9150611eb182612815565b602082019050919050565b6000611ec9602c836123d4565b9150611ed48261283e565b604082019050919050565b6000611eec6038836123d4565b9150611ef78261288d565b604082019050919050565b6000611f0f602a836123d4565b9150611f1a826128dc565b604082019050919050565b6000611f326029836123d4565b9150611f3d8261292b565b604082019050919050565b6000611f556020836123d4565b9150611f608261297a565b602082019050919050565b6000611f786031836123d4565b9150611f83826129a3565b604082019050919050565b6000611f9b602c836123d4565b9150611fa6826129f2565b604082019050919050565b6000611fbe6029836123d4565b9150611fc982612a41565b604082019050919050565b6000611fe1602f836123d4565b9150611fec82612a90565b604082019050919050565b60006120046021836123d4565b915061200f82612adf565b604082019050919050565b60006120276031836123d4565b915061203282612b2e565b604082019050919050565b61204681612515565b82525050565b60006120588284611dff565b915081905092915050565b600061206f8285611dff565b915061207b8284611dff565b91508190509392505050565b600060208201905061209c6000830184611d6f565b92915050565b60006080820190506120b76000830187611d6f565b6120c46020830186611d6f565b6120d1604083018561203d565b81810360608301526120e38184611d8d565b905095945050505050565b60006020820190506121036000830184611d7e565b92915050565b600060208201905081810360008301526121238184611dc6565b905092915050565b6000602082019050818103600083015261214481611e30565b9050919050565b6000602082019050818103600083015261216481611e53565b9050919050565b6000602082019050818103600083015261218481611e76565b9050919050565b600060208201905081810360008301526121a481611e99565b9050919050565b600060208201905081810360008301526121c481611ebc565b9050919050565b600060208201905081810360008301526121e481611edf565b9050919050565b6000602082019050818103600083015261220481611f02565b9050919050565b6000602082019050818103600083015261222481611f25565b9050919050565b6000602082019050818103600083015261224481611f48565b9050919050565b6000602082019050818103600083015261226481611f6b565b9050919050565b6000602082019050818103600083015261228481611f8e565b9050919050565b600060208201905081810360008301526122a481611fb1565b9050919050565b600060208201905081810360008301526122c481611fd4565b9050919050565b600060208201905081810360008301526122e481611ff7565b9050919050565b600060208201905081810360008301526123048161201a565b9050919050565b6000602082019050612320600083018461203d565b92915050565b6000612330612341565b905061233c8282612593565b919050565b6000604051905090565b600067ffffffffffffffff821115612366576123656126fa565b5b61236f8261273d565b9050602081019050919050565b600067ffffffffffffffff821115612397576123966126fa565b5b6123a08261273d565b9050602081019050919050565b600081519050919050565b600081519050919050565b600082825260208201905092915050565b600082825260208201905092915050565b600081905092915050565b60006123fb82612515565b915061240683612515565b9250827fffffffffffffffffffffffffffffffffffffffffffffffffffffffffffffffff0382111561243b5761243a61263e565b5b828201905092915050565b600061245182612515565b915061245c83612515565b92508261246c5761246b61266d565b5b828204905092915050565b600061248282612515565b915061248d83612515565b9250828210156124a05761249f61263e565b5b828203905092915050565b60006124b6826124f5565b9050919050565b60008115159050919050565b60007fffffffff0000000000000000000000000000000000000000000000000000000082169050919050565b600073ffffffffffffffffffffffffffffffffffffffff82169050919050565b6000819050919050565b82818337600083830152505050565b60005b8381101561254c578082015181840152602081019050612531565b8381111561255b576000848401525b50505050565b6000600282049050600182168061257957607f821691505b6020821081141561258d5761258c61269c565b5b50919050565b61259c8261273d565b810181811067ffffffffffffffff821117156125bb576125ba6126fa565b5b80604052505050565b60006125cf82612515565b91507fffffffffffffffffffffffffffffffffffffffffffffffffffffffffffffffff8214156126025761260161263e565b5b600182019050919050565b600061261882612515565b915061262383612515565b9250826126335761263261266d565b5b828206905092915050565b7f4e487b7100000000000000000000000000000000000000000000000000000000600052601160045260246000fd5b7f4e487b7100000000000000000000000000000000000000000000000000000000600052601260045260246000fd5b7f4e487b7100000000000000000000000000000000000000000000000000000000600052602260045260246000fd5b7f4e487b7100000000000000000000000000000000000000000000000000000000600052603260045260246000fd5b7f4e487b7100000000000000000000000000000000000000000000000000000000600052604160045260246000fd5b600080fd5b600080fd5b600080fd5b600080fd5b6000601f19601f8301169050919050565b7f4552433732313a207472616e7366657220746f206e6f6e20455243373231526560008201527f63656976657220696d706c656d656e7465720000000000000000000000000000602082015250565b7f4552433732313a20746f6b656e20616c7265616479206d696e74656400000000600082015250565b7f4552433732313a207472616e7366657220746f20746865207a65726f2061646460008201527f7265737300000000000000000000000000000000000000000000000000000000602082015250565b7f4552433732313a20617070726f766520746f2063616c6c657200000000000000600082015250565b7f4552433732313a206f70657261746f7220717565727920666f72206e6f6e657860008201527f697374656e7420746f6b656e0000000000000000000000000000000000000000602082015250565b7f4552433732313a20617070726f76652063616c6c6572206973206e6f74206f7760008201527f6e6572206e6f7220617070726f76656420666f7220616c6c0000000000000000602082015250565b7f4552433732313a2062616c616e636520717565727920666f7220746865207a6560008201527f726f206164647265737300000000000000000000000000000000000000000000602082015250565b7f4552433732313a206f776e657220717565727920666f72206e6f6e657869737460008201527f656e7420746f6b656e0000000000000000000000000000000000000000000000602082015250565b7f4552433732313a206d696e7420746f20746865207a65726f2061646472657373600082015250565b7f45524337323155524953746f726167653a2055524920717565727920666f722060008201527f6e6f6e6578697374656e7420746f6b656e000000000000000000000000000000602082015250565b7f4552433732313a20617070726f76656420717565727920666f72206e6f6e657860008201527f697374656e7420746f6b656e0000000000000000000000000000000000000000602082015250565b7f4552433732313a207472616e73666572206f6620746f6b656e2074686174206960008201527f73206e6f74206f776e0000000000000000000000000000000000000000000000602082015250565b7f4552433732314d657461646174613a2055524920717565727920666f72206e6f60008201527f6e6578697374656e7420746f6b656e0000000000000000000000000000000000602082015250565b7f4552433732313a20617070726f76616c20746f2063757272656e74206f776e6560008201527f7200000000000000000000000000000000000000000000000000000000000000602082015250565b7f4552433732313a207472616e736665722063616c6c6572206973206e6f74206f60008201527f776e6572206e6f7220617070726f766564000000000000000000000000000000602082015250565b612b86816124ab565b8114612b9157600080fd5b50565b612b9d816124bd565b8114612ba857600080fd5b50565b612bb4816124c9565b8114612bbf57600080fd5b50565b612bcb81612515565b8114612bd657600080fd5b5056fea2646970667358221220af3c4a1ea6188eafc334acf75cfffd8b22274ee085ccc604a21aae09631e21e264736f6c63430008070033",
  "immutableReferences": {},
  "source": "pragma solidity ^0.8.0;\r\n\r\nimport \"@openzeppelin/contracts/token/ERC721/extensions/ERC721URIStorage.sol\";\r\n\r\ncontract Color is ERC721URIStorage {\r\n  string[] public colors;\r\n\r\n  mapping(string => bool) _colorExists;\r\n\r\n  constructor() ERC721(\"Color\", \"CLR\") {}\r\n\r\n  function mint(string memory _color) public {\r\n    require(!_colorExists[_color]);\r\n    colors.push(_color);\r\n    uint _tokenId = colors.length;\r\n    _mint(msg.sender, _tokenId);\r\n    _colorExists[_color] = true;\r\n  }\r\n\r\n  function totalSupply() public view virtual returns (uint256) {\r\n    return colors.length;\r\n  }\r\n\r\n}",
  "sourcePath": "D:\\AAMERTYEDEK\\Code\\blockchain\\dapp-nft\\colorNft\\src\\contracts\\Color.sol",
  "compiler": {
    "name": "solc",
    "version": "0.8.7+commit.e28d00a7.Emscripten.clang"
  },
  "schemaVersion": "3.4.3",
  "updatedAt": "2021-09-23T16:22:52.354Z",
  "networkType": "ethereum",
  "devdoc": {
    "kind": "dev",
    "methods": {
      "approve(address,uint256)": {
        "details": "See {IERC721-approve}."
      },
      "balanceOf(address)": {
        "details": "See {IERC721-balanceOf}."
      },
      "getApproved(uint256)": {
        "details": "See {IERC721-getApproved}."
      },
      "isApprovedForAll(address,address)": {
        "details": "See {IERC721-isApprovedForAll}."
      },
      "name()": {
        "details": "See {IERC721Metadata-name}."
      },
      "ownerOf(uint256)": {
        "details": "See {IERC721-ownerOf}."
      },
      "safeTransferFrom(address,address,uint256)": {
        "details": "See {IERC721-safeTransferFrom}."
      },
      "safeTransferFrom(address,address,uint256,bytes)": {
        "details": "See {IERC721-safeTransferFrom}."
      },
      "setApprovalForAll(address,bool)": {
        "details": "See {IERC721-setApprovalForAll}."
      },
      "supportsInterface(bytes4)": {
        "details": "See {IERC165-supportsInterface}."
      },
      "symbol()": {
        "details": "See {IERC721Metadata-symbol}."
      },
      "tokenURI(uint256)": {
        "details": "See {IERC721Metadata-tokenURI}."
      },
      "transferFrom(address,address,uint256)": {
        "details": "See {IERC721-transferFrom}."
      }
    },
    "version": 1
  },
  "userdoc": {
    "kind": "user",
    "methods": {},
    "version": 1
  }
}